:020000020000FC
:040000000C9422003A
:100040000C9491000FEF0AB903E007B903E005B97A
:10005000E2E4F1E0A0E0B1E003E005BD01E00093DF
:100060006E0030E040E051E060E078940AE0759185
:100070007D930A95E1F7603001F503B1023069F034
:1000800003B1013019F078940C943B0060950C9406
:100090003B0003B10330E9F3089533950E94490012
:1000A0003A3049F70E9456000C943B0030E04395EB
:1000B0004A3009F740E00C943B003A950E94490011
:1000C0003F3FC9F60E9466000C943B0039E04A9518
:1000D0004F3F89F649E00C943B0018EC2AEF0000F2
:1000E0000000000000000000000000000000000010
:1000F0002A95A9F71A9591F708958AE02AE010E168
:1001000000000000000000000000000000000000EF
:10011000000000001A95A1F72A9589F78A9571F7D2
:10012000089500E008B9513031F4A32F0C910BB9B8
:1001300058B952E01895A42F0C910BB958B951E059
:0C0140001895039F250D9949411F0109E6
:00000001FF
