:020000020000FC
:040000000C94260036
:100048000C94760000E90093C10007E60093C40011
:100058000EEF0AB90E949F0004E20BB900E20BB947
:1000680004E80BB900E80BB90E94910004E00BB951
:1000780000E00BB904EE0BB900EE0BB90E94910039
:1000880004E00BB900E00BB904E60BB900E60BB9C4
:100098000E94910004E00BB900E00BB904E10BB930
:1000A80000E10BB960E00E949100789400000C9484
:1000B8005A0004EC0BB900EC0BB904E00BB900E0F2
:1000C8000BB90E9491000C947E0060E004E00BB92B
:1000D80000E00BB904E10BB900E10BB90E949100F3
:1000E8000C947E0063954091C600542F603109F34B
:1000F800603259F3407F4C604BB9407F48604BB940
:100108005F70550F550F550F550F5C605BB9507FE9
:1001180058605BB90E949100189510EA28EC00001D
:100128000000000000000000000000002A95B9F758
:100138001A95A1F708950E9491000E9491000E94CB
:0C01480091000E9491000E949100089517
:00000001FF
