:020000020000FC
:040000000C94260036
:100048000C94890000E90093C10007E60093C400FE
:100058000EEF0AB90E94B20004E20BB900E20BB934
:1000680004E80BB900E80BB90E94A40004E00BB93E
:1000780000E00BB904EE0BB900EE0BB90E94A40026
:1000880004E00BB900E00BB904E60BB900E60BB9C4
:100098000E94A40004E00BB900E00BB904E10BB91D
:1000A80000E10BB960E00E94A400789400000C9471
:1000B8005A0004EC0BB900EC0BB904E00BB900E0F2
:1000C8000BB90E94A4000C9491000CE60BB908E649
:1000D8000BB90CE20BB908E20BB90E94A40004E0CA
:1000E8000BB900E00BB905E00BB901E00BB90E94B0
:1000F800A4000CE60BB908E60BB90CE20BB908E250
:100108000BB90E94A4000C94910063954091C6001D
:10011800542F603171F26431C1F2407F4C604BB9A9
:10012800407F48604BB95F70550F550F550F550FFD
:100138005C605BB9507F58605BB90E94A400189559
:1001480010EA28EC00000000000000000000000099
:1001580000002A95B9F71A95A1F708950E94A400FE
:100168000E94A4000E94A4000E94A4000E94A4006F
:020178000895E8
:00000001FF
