:020000020000FC
:040000000C94260036
:100048000C945C0000E90093C10007E60093C4002B
:100058000EEF0AB90E94A90004E20BB900E20BB93D
:1000680004E80BB900E80BB90E949B0004E00BB947
:1000780000E00BB904EE0BB900EE0BB90E949B002F
:1000880004E00BB900E00BB904E60BB900E60BB9C4
:100098000E949B0004E00BB900E00BB904E10BB926
:1000A80000E10BB90E949B00789400000C94590061
:1000B8005091C600451709F4189563954091C600FC
:1000C800542F6031A9F068304CF5407F4C604BB933
:1000D800407F48604BB95F70550F550F550F550F4E
:1000E8005C605BB9507F58605BB90E949B001895B3
:1000F80060E104EC0BB900EC0BB904E00BB900E0CB
:100108000BB90E949B000CE20BB908E20BB90CE09A
:100118000BB908E00BB90E949B00089534E10BB9B4
:1001280030E10BB934E80BB930E80BB9089510EA9F
:1001380028EC0000000000000000000000000000A3
:100148002A95B9F71A95A1F708950E949B000E9475
:100158009B000E949B000E949B000E949B000895A8
:00000001FF
