:020000020000FC
:100000000FE707B900E808B90FEF04B90FEF0AB915
:1000100006B10078E9F1E8E8F0E008E005B90E94EF
:100020003F0000E005B904E005B90E943F0000E090
:1000300005B902E005B90E943F0000E005B901E002
:1000400005B90E943F0000E005B908E008B90E9428
:100050003F0000E008B904E008B90E943F0000E05A
:1000600008B902E008B90E943F0000E008B901E0C9
:1000700008B90E943F0000E008B90C9408000591FF
:100080000BB90E94490008953E4192848886813EC2
:10009000089535E028EC18EC000000000000000096
:1000A0000000000000001A95B9F72A95A1F73A95CB
:0400B00089F708952F
:00000001FF
