:020000020000FC
:100000000FE007B900EF08B90FE004B90FEF0AB924
:1000100006B1007229F0E6E6F0E001E00C9413006E
:10002000EEE6F0E001E0402F009508B90E942E00B6
:100030000FE008B9042F000F003111F00C941300E9
:1000400001E0402F009505B90E942E000FE005B990
:10005000042F000F0031E1F20C94210005910BB93F
:100060000E943B0008953E4192848886817E8118DB
:100070003C7E72525E813AE02AE010E1000000000E
:100080000000000000000000000000000000000070
:0E0090001A95A1F72A9589F73A9571F7089508
:00000001FF
