:020000020000FC
:100000000FEF0AB900E007B903E008B906B10E9492
:1000100032000370033041F0023041F0013041F012
:10002000003041F00C9406000C941E000C94540017
:100030000C946A000C9476000C94060001E00BB955
:100040000E943200000F0BB90E943200003811F0FC
:100050000C94220006950BB90E943200013061F326
:100060000C942A0045E038EC28EC00000000000069
:1000700000000000000000002A95B9F73A95A1F7AA
:100080004A9589F7089542E038EC2AEF0000000015
:10009000000000000000000000002A95B9F73A9522
:1000A000A1F74A9589F7089501E00BB90E94430032
:1000B000000F0BB90E944300003811F00C94580057
:1000C00006950BB90E944300013011F00C946000BA
:1000D0000C940600E8EEF0E005910BB90E943200A6
:1000E0000831B1F30C946C0081422418E0E0F1E097
:1000F00005910BB90E943200013851F30C9478003D
:0401000018244281FC
:00000001FF
