:020000020000FC
:040000000C94260036
:100048000C94F20008E90093C10007E60093C4008D
:100058000EEF0AB90E941F0104E20BB900E20BB9C6
:1000680004E80BB900E80BB90E94110104E00BB9D0
:1000780000E00BB904EE0BB900EE0BB90E941101B8
:1000880004E00BB900E00BB904E60BB900E60BB9C4
:100098000E94110104E00BB900E00BB904E10BB9AF
:1000A80000E10BB960E070E090E00E9411017894E3
:1000B80000E007B90FE008B904B900E005B900008D
:1000C800000006B10F700E3041F00D3049F00B30D2
:1000D80051F0073059F00C94630080E00C947D00D7
:1000E80084E00C947D0088E00C947D008CE00C94F6
:1000F8007D000FE007B900E008B900E004B90FE09F
:1001080005B90000000003B10F700E3041F00D304A
:1001180041F00B3049F0073051F00C945C000C941E
:100128009E008F5F0C949E008E5F0C949E008D5FE6
:100138000C949E008F30C9F0703041F0713049F056
:10014800723051F0733059F0743061F0805D0C9466
:10015800C1008F5B0C94C100805B0C94C1008F5967
:100168000C94C10080590C94C100743019F0739537
:100178000C945C0070E00C94C10091E0082F00938F
:10018800C6000C94F2000E941F010E941F010E94E9
:100198001F010E941F010E941F010C945C0004ECC7
:1001A8000BB900EC0BB904E00BB900E00BB90E94E5
:1001B80011010C94FC0060E004E00BB900E00BB9FD
:1001C80004E10BB900E10BB90E9411010C94FC0089
:1001D800482F0C94F70090E00C94C7006395409169
:1001E800C6009130A9F3542F6031C9F2603219F377
:1001F800407F4C604BB9407F48604BB95F70550FEA
:10020800550F550F550F5C605BB9507F58605BB94F
:100218000E9411019130F9F2189510EA28EC0000BB
:100228000000000000000000000000002A95B9F757
:100238001A95A1F708950E9411010E9411010E94C8
:0C02480011010E9411010E941101089593
:00000001FF
